{
  "_format": "hh-sol-artifact-1",
  "contractName": "LandOwnership",
  "sourceName": "contracts/LandOwnership.sol",
  "abi": [
    {
      "inputs": [],
      "stateMutability": "nonpayable",
      "type": "constructor"
    },
    {
      "anonymous": false,
      "inputs": [
        {
          "indexed": false,
          "internalType": "uint256",
          "name": "id",
          "type": "uint256"
        },
        {
          "indexed": false,
          "internalType": "string",
          "name": "location",
          "type": "string"
        },
        {
          "indexed": false,
          "internalType": "uint256",
          "name": "price",
          "type": "uint256"
        },
        {
          "indexed": true,
          "internalType": "address",
          "name": "owner",
          "type": "address"
        }
      ],
      "name": "LandRegistered",
      "type": "event"
    },
    {
      "anonymous": false,
      "inputs": [
        {
          "indexed": false,
          "internalType": "uint256",
          "name": "id",
          "type": "uint256"
        },
        {
          "indexed": true,
          "internalType": "address",
          "name": "oldOwner",
          "type": "address"
        },
        {
          "indexed": true,
          "internalType": "address",
          "name": "newOwner",
          "type": "address"
        }
      ],
      "name": "OwnershipTransferred",
      "type": "event"
    },
    {
      "inputs": [],
      "name": "admin",
      "outputs": [
        {
          "internalType": "address",
          "name": "",
          "type": "address"
        }
      ],
      "stateMutability": "view",
      "type": "function"
    },
    {
      "inputs": [
        {
          "internalType": "uint256",
          "name": "_landId",
          "type": "uint256"
        }
      ],
      "name": "getLandDetails",
      "outputs": [
        {
          "internalType": "string",
          "name": "",
          "type": "string"
        },
        {
          "internalType": "uint256",
          "name": "",
          "type": "uint256"
        },
        {
          "internalType": "address",
          "name": "",
          "type": "address"
        }
      ],
      "stateMutability": "view",
      "type": "function"
    },
    {
      "inputs": [],
      "name": "landCount",
      "outputs": [
        {
          "internalType": "uint256",
          "name": "",
          "type": "uint256"
        }
      ],
      "stateMutability": "view",
      "type": "function"
    },
    {
      "inputs": [
        {
          "internalType": "uint256",
          "name": "",
          "type": "uint256"
        }
      ],
      "name": "lands",
      "outputs": [
        {
          "internalType": "uint256",
          "name": "id",
          "type": "uint256"
        },
        {
          "internalType": "string",
          "name": "location",
          "type": "string"
        },
        {
          "internalType": "uint256",
          "name": "price",
          "type": "uint256"
        },
        {
          "internalType": "address",
          "name": "currentOwner",
          "type": "address"
        }
      ],
      "stateMutability": "view",
      "type": "function"
    },
    {
      "inputs": [
        {
          "internalType": "string",
          "name": "_location",
          "type": "string"
        },
        {
          "internalType": "uint256",
          "name": "_price",
          "type": "uint256"
        }
      ],
      "name": "registerLand",
      "outputs": [],
      "stateMutability": "nonpayable",
      "type": "function"
    },
    {
      "inputs": [
        {
          "internalType": "uint256",
          "name": "_landId",
          "type": "uint256"
        },
        {
          "internalType": "address",
          "name": "_newOwner",
          "type": "address"
        }
      ],
      "name": "transferOwnership",
      "outputs": [],
      "stateMutability": "nonpayable",
      "type": "function"
    }
  ],
  "bytecode": "0x6080604052348015600f57600080fd5b50336000806101000a81548173ffffffffffffffffffffffffffffffffffffffff021916908373ffffffffffffffffffffffffffffffffffffffff160217905550610fe38061005f6000396000f3fe608060405234801561001057600080fd5b50600436106100625760003560e01c806329507f7314610067578063ce924ed914610083578063d7bce6581461009f578063e261f1e5146100bd578063f851a440146100f0578063fe0cb7dc1461010e575b600080fd5b610081600480360381019061007c919061078a565b610140565b005b61009d60048036038101906100989190610910565b6102e0565b005b6100a76104a0565b6040516100b4919061097b565b60405180910390f35b6100d760048036038101906100d29190610996565b6104a6565b6040516100e79493929190610a51565b60405180910390f35b6100f861057e565b6040516101059190610a9d565b60405180910390f35b61012860048036038101906101239190610996565b6105a2565b60405161013793929190610ab8565b60405180910390f35b813373ffffffffffffffffffffffffffffffffffffffff166002600083815260200190815260200160002060030160009054906101000a900473ffffffffffffffffffffffffffffffffffffffff1673ffffffffffffffffffffffffffffffffffffffff16146101e5576040517f08c379a00000000000000000000000000000000000000000000000000000000081526004016101dc90610b68565b60405180910390fd5b60006002600085815260200190815260200160002060030160009054906101000a900473ffffffffffffffffffffffffffffffffffffffff169050826002600086815260200190815260200160002060030160006101000a81548173ffffffffffffffffffffffffffffffffffffffff021916908373ffffffffffffffffffffffffffffffffffffffff1602179055508273ffffffffffffffffffffffffffffffffffffffff168173ffffffffffffffffffffffffffffffffffffffff167f16b85f49bf01212961345d3016c9a531894accf62eb7680f2045d79185cc0ec0866040516102d2919061097b565b60405180910390a350505050565b60008054906101000a900473ffffffffffffffffffffffffffffffffffffffff1673ffffffffffffffffffffffffffffffffffffffff163373ffffffffffffffffffffffffffffffffffffffff161461036e576040517f08c379a000000000000000000000000000000000000000000000000000000000815260040161036590610bfa565b60405180910390fd5b6001600081548092919061038190610c49565b9190505550604051806080016040528060015481526020018381526020018281526020013373ffffffffffffffffffffffffffffffffffffffff168152506002600060015481526020019081526020016000206000820151816000015560208201518160010190816103f39190610e9d565b506040820151816002015560608201518160030160006101000a81548173ffffffffffffffffffffffffffffffffffffffff021916908373ffffffffffffffffffffffffffffffffffffffff1602179055509050503373ffffffffffffffffffffffffffffffffffffffff167f53a976a9b9d61df3bb2e08e33448938aea67fb03572279eb18ed48cdd6fad04e600154848460405161049493929190610f6f565b60405180910390a25050565b60015481565b60026020528060005260406000206000915090508060000154908060010180546104cf90610cc0565b80601f01602080910402602001604051908101604052809291908181526020018280546104fb90610cc0565b80156105485780601f1061051d57610100808354040283529160200191610548565b820191906000526020600020905b81548152906001019060200180831161052b57829003601f168201915b5050505050908060020154908060030160009054906101000a900473ffffffffffffffffffffffffffffffffffffffff16905084565b60008054906101000a900473ffffffffffffffffffffffffffffffffffffffff1681565b6060600080600060026000868152602001908152602001600020604051806080016040529081600082015481526020016001820180546105e190610cc0565b80601f016020809104026020016040519081016040528092919081815260200182805461060d90610cc0565b801561065a5780601f1061062f5761010080835404028352916020019161065a565b820191906000526020600020905b81548152906001019060200180831161063d57829003601f168201915b50505050508152602001600282015481526020016003820160009054906101000a900473ffffffffffffffffffffffffffffffffffffffff1673ffffffffffffffffffffffffffffffffffffffff1673ffffffffffffffffffffffffffffffffffffffff16815250509050806020015181604001518260600151935093509350509193909250565b6000604051905090565b600080fd5b600080fd5b6000819050919050565b610709816106f6565b811461071457600080fd5b50565b60008135905061072681610700565b92915050565b600073ffffffffffffffffffffffffffffffffffffffff82169050919050565b60006107578261072c565b9050919050565b6107678161074c565b811461077257600080fd5b50565b6000813590506107848161075e565b92915050565b600080604083850312156107a1576107a06106ec565b5b60006107af85828601610717565b92505060206107c085828601610775565b9150509250929050565b600080fd5b600080fd5b6000601f19601f8301169050919050565b7f4e487b7100000000000000000000000000000000000000000000000000000000600052604160045260246000fd5b61081d826107d4565b810181811067ffffffffffffffff8211171561083c5761083b6107e5565b5b80604052505050565b600061084f6106e2565b905061085b8282610814565b919050565b600067ffffffffffffffff82111561087b5761087a6107e5565b5b610884826107d4565b9050602081019050919050565b82818337600083830152505050565b60006108b36108ae84610860565b610845565b9050828152602081018484840111156108cf576108ce6107cf565b5b6108da848285610891565b509392505050565b600082601f8301126108f7576108f66107ca565b5b81356109078482602086016108a0565b91505092915050565b60008060408385031215610927576109266106ec565b5b600083013567ffffffffffffffff811115610945576109446106f1565b5b610951858286016108e2565b925050602061096285828601610717565b9150509250929050565b610975816106f6565b82525050565b6000602082019050610990600083018461096c565b92915050565b6000602082840312156109ac576109ab6106ec565b5b60006109ba84828501610717565b91505092915050565b600081519050919050565b600082825260208201905092915050565b60005b838110156109fd5780820151818401526020810190506109e2565b60008484015250505050565b6000610a14826109c3565b610a1e81856109ce565b9350610a2e8185602086016109df565b610a37816107d4565b840191505092915050565b610a4b8161074c565b82525050565b6000608082019050610a66600083018761096c565b8181036020830152610a788186610a09565b9050610a87604083018561096c565b610a946060830184610a42565b95945050505050565b6000602082019050610ab26000830184610a42565b92915050565b60006060820190508181036000830152610ad28186610a09565b9050610ae1602083018561096c565b610aee6040830184610a42565b949350505050565b7f4f6e6c79207468652063757272656e74206f776e65722063616e207472616e7360008201527f666572206f776e65727368697000000000000000000000000000000000000000602082015250565b6000610b52602d836109ce565b9150610b5d82610af6565b604082019050919050565b60006020820190508181036000830152610b8181610b45565b9050919050565b7f4f6e6c792061646d696e2063616e20706572666f726d2074686973206163746960008201527f6f6e000000000000000000000000000000000000000000000000000000000000602082015250565b6000610be46022836109ce565b9150610bef82610b88565b604082019050919050565b60006020820190508181036000830152610c1381610bd7565b9050919050565b7f4e487b7100000000000000000000000000000000000000000000000000000000600052601160045260246000fd5b6000610c54826106f6565b91507fffffffffffffffffffffffffffffffffffffffffffffffffffffffffffffffff8203610c8657610c85610c1a565b5b600182019050919050565b7f4e487b7100000000000000000000000000000000000000000000000000000000600052602260045260246000fd5b60006002820490506001821680610cd857607f821691505b602082108103610ceb57610cea610c91565b5b50919050565b60008190508160005260206000209050919050565b60006020601f8301049050919050565b600082821b905092915050565b600060088302610d537fffffffffffffffffffffffffffffffffffffffffffffffffffffffffffffffff82610d16565b610d5d8683610d16565b95508019841693508086168417925050509392505050565b6000819050919050565b6000610d9a610d95610d90846106f6565b610d75565b6106f6565b9050919050565b6000819050919050565b610db483610d7f565b610dc8610dc082610da1565b848454610d23565b825550505050565b600090565b610ddd610dd0565b610de8818484610dab565b505050565b5b81811015610e0c57610e01600082610dd5565b600181019050610dee565b5050565b601f821115610e5157610e2281610cf1565b610e2b84610d06565b81016020851015610e3a578190505b610e4e610e4685610d06565b830182610ded565b50505b505050565b600082821c905092915050565b6000610e7460001984600802610e56565b1980831691505092915050565b6000610e8d8383610e63565b9150826002028217905092915050565b610ea6826109c3565b67ffffffffffffffff811115610ebf57610ebe6107e5565b5b610ec98254610cc0565b610ed4828285610e10565b600060209050601f831160018114610f075760008415610ef5578287015190505b610eff8582610e81565b865550610f67565b601f198416610f1586610cf1565b60005b82811015610f3d57848901518255600182019150602085019450602081019050610f18565b86831015610f5a5784890151610f56601f891682610e63565b8355505b6001600288020188555050505b505050505050565b6000606082019050610f84600083018661096c565b8181036020830152610f968185610a09565b9050610fa5604083018461096c565b94935050505056fea264697066735822122001cc69fbc154497f1f8602a0eb543d3bffc84733ba8a729f84277f043149747664736f6c634300081c0033",
  "linkReferences": {},
  "deployedLinkReferences": {}
}